{
  "contractName": "MyContract",
  "abi": [
    {
      "inputs": [],
      "stateMutability": "nonpayable",
      "type": "constructor"
    },
    {
      "anonymous": false,
      "inputs": [
        {
          "indexed": false,
          "internalType": "string",
          "name": "_message",
          "type": "string"
        },
        {
          "indexed": true,
          "internalType": "address",
          "name": "_address",
          "type": "address"
        }
      ],
      "name": "added",
      "type": "event"
    },
    {
      "anonymous": false,
      "inputs": [
        {
          "indexed": true,
          "internalType": "address",
          "name": "_policyAddress",
          "type": "address"
        }
      ],
      "name": "votedEvent",
      "type": "event"
    },
    {
      "inputs": [
        {
          "internalType": "address",
          "name": "",
          "type": "address"
        }
      ],
      "name": "persons",
      "outputs": [
        {
          "internalType": "uint256",
          "name": "id",
          "type": "uint256"
        },
        {
          "internalType": "string",
          "name": "name",
          "type": "string"
        },
        {
          "internalType": "uint256",
          "name": "credits",
          "type": "uint256"
        },
        {
          "internalType": "uint256",
          "name": "numPolcies",
          "type": "uint256"
        },
        {
          "internalType": "bool",
          "name": "exists",
          "type": "bool"
        }
      ],
      "stateMutability": "view",
      "type": "function"
    },
    {
      "inputs": [
        {
          "internalType": "address",
          "name": "",
          "type": "address"
        }
      ],
      "name": "policies",
      "outputs": [
        {
          "internalType": "bytes32",
          "name": "details",
          "type": "bytes32"
        },
        {
          "internalType": "bytes32",
          "name": "beneficiary",
          "type": "bytes32"
        },
        {
          "internalType": "address",
          "name": "framer",
          "type": "address"
        },
        {
          "internalType": "uint256",
          "name": "creditPoints",
          "type": "uint256"
        },
        {
          "internalType": "uint256",
          "name": "voteCountFor",
          "type": "uint256"
        },
        {
          "internalType": "uint256",
          "name": "votecountAgainst",
          "type": "uint256"
        },
        {
          "internalType": "bool",
          "name": "exists",
          "type": "bool"
        }
      ],
      "stateMutability": "view",
      "type": "function"
    },
    {
      "inputs": [
        {
          "internalType": "address",
          "name": "",
          "type": "address"
        }
      ],
      "name": "policymakers",
      "outputs": [
        {
          "internalType": "string",
          "name": "name",
          "type": "string"
        },
        {
          "internalType": "uint256",
          "name": "id",
          "type": "uint256"
        },
        {
          "internalType": "uint256",
          "name": "constituency",
          "type": "uint256"
        },
        {
          "internalType": "bool",
          "name": "exists",
          "type": "bool"
        }
      ],
      "stateMutability": "view",
      "type": "function"
    },
    {
      "inputs": [
        {
          "internalType": "uint256",
          "name": "_id",
          "type": "uint256"
        },
        {
          "internalType": "string",
          "name": "_name",
          "type": "string"
        },
        {
          "internalType": "address",
          "name": "_personAddress",
          "type": "address"
        }
      ],
      "name": "addPerson",
      "outputs": [],
      "stateMutability": "nonpayable",
      "type": "function"
    },
    {
      "inputs": [
        {
          "internalType": "address",
          "name": "_policymakerAddress",
          "type": "address"
        },
        {
          "internalType": "string",
          "name": "_name",
          "type": "string"
        },
        {
          "internalType": "uint256",
          "name": "_id",
          "type": "uint256"
        },
        {
          "internalType": "uint256",
          "name": "_constituency",
          "type": "uint256"
        }
      ],
      "name": "addPolicymaker",
      "outputs": [],
      "stateMutability": "nonpayable",
      "type": "function"
    },
    {
      "inputs": [
        {
          "internalType": "address",
          "name": "_policyAddress",
          "type": "address"
        },
        {
          "internalType": "address",
          "name": "_framer",
          "type": "address"
        },
        {
          "internalType": "bytes32",
          "name": "_beneficiary",
          "type": "bytes32"
        },
        {
          "internalType": "bytes32",
          "name": "_details",
          "type": "bytes32"
        },
        {
          "internalType": "uint256",
          "name": "_credits",
          "type": "uint256"
        }
      ],
      "name": "addPolicy",
      "outputs": [],
      "stateMutability": "nonpayable",
      "type": "function"
    },
    {
      "inputs": [
        {
          "internalType": "address",
          "name": "_policyAddress",
          "type": "address"
        },
        {
          "internalType": "address",
          "name": "_personAddress",
          "type": "address"
        }
      ],
      "name": "enrollPerson",
      "outputs": [],
      "stateMutability": "nonpayable",
      "type": "function"
    },
    {
      "inputs": [
        {
          "internalType": "address",
          "name": "_policyAddress",
          "type": "address"
        }
      ],
      "name": "vote",
      "outputs": [],
      "stateMutability": "nonpayable",
      "type": "function"
    }
  ],
  "bytecode": "0x608060405260016000806101000a81548160ff0219169083600181111561002257fe5b021790555034801561003357600080fd5b5033600060016101000a81548173ffffffffffffffffffffffffffffffffffffffff021916908373ffffffffffffffffffffffffffffffffffffffff16021790555060008060006101000a81548160ff0219169083600181111561009357fe5b0217905550611d0d806100a76000396000f3fe608060405234801561001057600080fd5b50600436106100885760003560e01c80636dd7d8ea1161005b5780636dd7d8ea146103865780638ada2cf6146103ca578063e30cc976146104a7578063f78f46861461050b57610088565b80630671f9151461008d57806320e986981461010f5780633abad393146101c15780634927b47a146102b0575b600080fd5b61010d600480360360a08110156100a357600080fd5b81019080803573ffffffffffffffffffffffffffffffffffffffff169060200190929190803573ffffffffffffffffffffffffffffffffffffffff1690602001909291908035906020019092919080359060200190929190803590602001909291905050506105f0565b005b6101516004803603602081101561012557600080fd5b81019080803573ffffffffffffffffffffffffffffffffffffffff169060200190929190505050610a18565b604051808881526020018781526020018673ffffffffffffffffffffffffffffffffffffffff1673ffffffffffffffffffffffffffffffffffffffff1681526020018581526020018481526020018381526020018215151515815260200197505050505050505060405180910390f35b6102ae600480360360808110156101d757600080fd5b81019080803573ffffffffffffffffffffffffffffffffffffffff1690602001909291908035906020019064010000000081111561021457600080fd5b82018360208201111561022657600080fd5b8035906020019184600183028401116401000000008311171561024857600080fd5b91908080601f016020809104026020016040519081016040528093929190818152602001838380828437600081840152601f19601f8201169050808301925050505050505091929192908035906020019092919080359060200190929190505050610a87565b005b6102f2600480360360208110156102c657600080fd5b81019080803573ffffffffffffffffffffffffffffffffffffffff169060200190929190505050610d97565b604051808060200185815260200184815260200183151515158152602001828103825286818151815260200191508051906020019080838360005b8381101561034857808201518184015260208101905061032d565b50505050905090810190601f1680156103755780820380516001836020036101000a031916815260200191505b509550505050505060405180910390f35b6103c86004803603602081101561039c57600080fd5b81019080803573ffffffffffffffffffffffffffffffffffffffff169060200190929190505050610e6c565b005b61040c600480360360208110156103e057600080fd5b81019080803573ffffffffffffffffffffffffffffffffffffffff169060200190929190505050611312565b604051808681526020018060200185815260200184815260200183151515158152602001828103825286818151815260200191508051906020019080838360005b8381101561046857808201518184015260208101905061044d565b50505050905090810190601f1680156104955780820380516001836020036101000a031916815260200191505b50965050505050505060405180910390f35b610509600480360360408110156104bd57600080fd5b81019080803573ffffffffffffffffffffffffffffffffffffffff169060200190929190803573ffffffffffffffffffffffffffffffffffffffff1690602001909291905050506113ed565b005b6105ee6004803603606081101561052157600080fd5b81019080803590602001909291908035906020019064010000000081111561054857600080fd5b82018360208201111561055a57600080fd5b8035906020019184600183028401116401000000008311171561057c57600080fd5b91908080601f016020809104026020016040519081016040528093929190818152602001838380828437600081840152601f19601f820116905080830192505050505050509192919290803573ffffffffffffffffffffffffffffffffffffffff16906020019092919050505061179a565b005b600060019054906101000a900473ffffffffffffffffffffffffffffffffffffffff1673ffffffffffffffffffffffffffffffffffffffff163373ffffffffffffffffffffffffffffffffffffffff1614610696576040517f08c379a000000000000000000000000000000000000000000000000000000000815260040180806020018281038252602a815260200180611bdc602a913960400191505060405180910390fd5b600160008573ffffffffffffffffffffffffffffffffffffffff1673ffffffffffffffffffffffffffffffffffffffff16815260200190815260200160002060030160009054906101000a900460ff1661073b576040517f08c379a0000000000000000000000000000000000000000000000000000000008152600401808060200182810382526026815260200180611cb26026913960400191505060405180910390fd5b600260008673ffffffffffffffffffffffffffffffffffffffff1673ffffffffffffffffffffffffffffffffffffffff16815260200190815260200160002060060160009054906101000a900460ff16156107e1576040517f08c379a0000000000000000000000000000000000000000000000000000000008152600401808060200182810382526026815260200180611c5d6026913960400191505060405180910390fd5b81600260008773ffffffffffffffffffffffffffffffffffffffff1673ffffffffffffffffffffffffffffffffffffffff1681526020019081526020016000206000018190555082600260008773ffffffffffffffffffffffffffffffffffffffff1673ffffffffffffffffffffffffffffffffffffffff1681526020019081526020016000206001018190555083600260008773ffffffffffffffffffffffffffffffffffffffff1673ffffffffffffffffffffffffffffffffffffffff16815260200190815260200160002060020160006101000a81548173ffffffffffffffffffffffffffffffffffffffff021916908373ffffffffffffffffffffffffffffffffffffffff16021790555080600260008773ffffffffffffffffffffffffffffffffffffffff1673ffffffffffffffffffffffffffffffffffffffff168152602001908152602001600020600301819055506001600260008773ffffffffffffffffffffffffffffffffffffffff1673ffffffffffffffffffffffffffffffffffffffff16815260200190815260200160002060060160006101000a81548160ff0219169083151502179055508473ffffffffffffffffffffffffffffffffffffffff167f09f714ffe8bd94507f70b3ea0839c16a6a2f2164e1f24fac39eff84539a9876660405180806020018281038252601a8152602001807f416464656420506f6c69637920746f207468652053797374656d00000000000081525060200191505060405180910390a25050505050565b60026020528060005260406000206000915090508060000154908060010154908060020160009054906101000a900473ffffffffffffffffffffffffffffffffffffffff16908060030154908060040154908060050154908060060160009054906101000a900460ff16905087565b600060019054906101000a900473ffffffffffffffffffffffffffffffffffffffff1673ffffffffffffffffffffffffffffffffffffffff163373ffffffffffffffffffffffffffffffffffffffff1614610b2d576040517f08c379a000000000000000000000000000000000000000000000000000000000815260040180806020018281038252602a815260200180611bdc602a913960400191505060405180910390fd5b600160008573ffffffffffffffffffffffffffffffffffffffff1673ffffffffffffffffffffffffffffffffffffffff16815260200190815260200160002060030160009054906101000a900460ff1615610bd3576040517f08c379a0000000000000000000000000000000000000000000000000000000008152600401808060200182810382526029815260200180611c066029913960400191505060405180910390fd5b82600160008673ffffffffffffffffffffffffffffffffffffffff1673ffffffffffffffffffffffffffffffffffffffff1681526020019081526020016000206000019080519060200190610c29929190611b10565b5081600160008673ffffffffffffffffffffffffffffffffffffffff1673ffffffffffffffffffffffffffffffffffffffff1681526020019081526020016000206001018190555080600160008673ffffffffffffffffffffffffffffffffffffffff1673ffffffffffffffffffffffffffffffffffffffff1681526020019081526020016000206002018190555060018060008673ffffffffffffffffffffffffffffffffffffffff1673ffffffffffffffffffffffffffffffffffffffff16815260200190815260200160002060030160006101000a81548160ff0219169083151502179055508373ffffffffffffffffffffffffffffffffffffffff167f09f714ffe8bd94507f70b3ea0839c16a6a2f2164e1f24fac39eff84539a9876660405180806020018281038252601f8152602001807f416464656420506f6c6963794d616b657220746f207468652073797374656d0081525060200191505060405180910390a250505050565b6001602052806000526040600020600091509050806000018054600181600116156101000203166002900480601f016020809104026020016040519081016040528092919081815260200182805460018160011615610100020316600290048015610e435780601f10610e1857610100808354040283529160200191610e43565b820191906000526020600020905b815481529060010190602001808311610e2657829003601f168201915b5050505050908060010154908060020154908060030160009054906101000a900460ff16905084565b600360003373ffffffffffffffffffffffffffffffffffffffff1673ffffffffffffffffffffffffffffffffffffffff16815260200190815260200160002060050160009054906101000a900460ff16610f11576040517f08c379a000000000000000000000000000000000000000000000000000000000815260040180806020018281038252602f815260200180611c83602f913960400191505060405180910390fd5b600260008273ffffffffffffffffffffffffffffffffffffffff1673ffffffffffffffffffffffffffffffffffffffff16815260200190815260200160002060060160009054906101000a900460ff16610fd3576040517f08c379a00000000000000000000000000000000000000000000000000000000081526004018080602001828103825260208152602001807f506f6c696379206d75737420657869737420696e207468652073797374656d2181525060200191505060405180910390fd5b60008090505b600360003373ffffffffffffffffffffffffffffffffffffffff1673ffffffffffffffffffffffffffffffffffffffff168152602001908152602001600020600301548110156112cb578173ffffffffffffffffffffffffffffffffffffffff16600360003373ffffffffffffffffffffffffffffffffffffffff1673ffffffffffffffffffffffffffffffffffffffff168152602001908152602001600020600401828154811061108757fe5b9060005260206000200160000160009054906101000a900473ffffffffffffffffffffffffffffffffffffffff1673ffffffffffffffffffffffffffffffffffffffff161480156111555750600060018111156110e057fe5b600360003373ffffffffffffffffffffffffffffffffffffffff1673ffffffffffffffffffffffffffffffffffffffff168152602001908152602001600020600401828154811061112d57fe5b9060005260206000200160000160149054906101000a900460ff16600181111561115357fe5b145b1561126d576001600360003373ffffffffffffffffffffffffffffffffffffffff1673ffffffffffffffffffffffffffffffffffffffff16815260200190815260200160002060040182815481106111a957fe5b9060005260206000200160000160146101000a81548160ff021916908360018111156111d157fe5b0217905550600260008373ffffffffffffffffffffffffffffffffffffffff1673ffffffffffffffffffffffffffffffffffffffff16815260200190815260200160002060030154600360003373ffffffffffffffffffffffffffffffffffffffff1673ffffffffffffffffffffffffffffffffffffffff168152602001908152602001600020600201600082825401925050819055506112be565b6040517f08c379a000000000000000000000000000000000000000000000000000000000815260040180806020018281038252602e815260200180611c2f602e913960400191505060405180910390fd5b8080600101915050610fd9565b8173ffffffffffffffffffffffffffffffffffffffff167f06640b67015c37470a2bc2e00a76d594f6794fae0d12b9e206bc1bf369fe067660405160405180910390a25050565b6003602052806000526040600020600091509050806000015490806001018054600181600116156101000203166002900480601f0160208091040260200160405190810160405280929190818152602001828054600181600116156101000203166002900480156113c45780601f10611399576101008083540402835291602001916113c4565b820191906000526020600020905b8154815290600101906020018083116113a757829003601f168201915b5050505050908060020154908060030154908060050160009054906101000a900460ff16905085565b600060019054906101000a900473ffffffffffffffffffffffffffffffffffffffff1673ffffffffffffffffffffffffffffffffffffffff163373ffffffffffffffffffffffffffffffffffffffff16146114b0576040517f08c379a000000000000000000000000000000000000000000000000000000000815260040180806020018281038252601d8152602001807f4f6e6c7920436f6d6d6973696f6e65722063616e20646f20746869732100000081525060200191505060405180910390fd5b600260008373ffffffffffffffffffffffffffffffffffffffff1673ffffffffffffffffffffffffffffffffffffffff16815260200190815260200160002060060160009054906101000a900460ff16611572576040517f08c379a00000000000000000000000000000000000000000000000000000000081526004018080602001828103825260128152602001807f506f6c696379206d75737420657869737421000000000000000000000000000081525060200191505060405180910390fd5b600360008273ffffffffffffffffffffffffffffffffffffffff1673ffffffffffffffffffffffffffffffffffffffff16815260200190815260200160002060050160009054906101000a900460ff16611634576040517f08c379a00000000000000000000000000000000000000000000000000000000081526004018080602001828103825260128152602001807f506572736f6e206d75737420657869737421000000000000000000000000000081525060200191505060405180910390fd5b600360008273ffffffffffffffffffffffffffffffffffffffff1673ffffffffffffffffffffffffffffffffffffffff16815260200190815260200160002060030160008154809291906001019190505550600360008273ffffffffffffffffffffffffffffffffffffffff1673ffffffffffffffffffffffffffffffffffffffff16815260200190815260200160002060040160405180604001604052808473ffffffffffffffffffffffffffffffffffffffff168152602001600060018111156116fc57fe5b8152509080600181540180825580915050600190039060005260206000200160009091909190915060008201518160000160006101000a81548173ffffffffffffffffffffffffffffffffffffffff021916908373ffffffffffffffffffffffffffffffffffffffff16021790555060208201518160000160146101000a81548160ff0219169083600181111561178f57fe5b021790555050505050565b600060019054906101000a900473ffffffffffffffffffffffffffffffffffffffff1673ffffffffffffffffffffffffffffffffffffffff163373ffffffffffffffffffffffffffffffffffffffff1614611840576040517f08c379a0000000000000000000000000000000000000000000000000000000008152600401808060200182810382526026815260200180611bb66026913960400191505060405180910390fd5b600360008273ffffffffffffffffffffffffffffffffffffffff1673ffffffffffffffffffffffffffffffffffffffff16815260200190815260200160002060050160009054906101000a900460ff1615611903576040517f08c379a00000000000000000000000000000000000000000000000000000000081526004018080602001828103825260168152602001807f506572736f6e20616c726561647920657869737473210000000000000000000081525060200191505060405180910390fd5b82600360008373ffffffffffffffffffffffffffffffffffffffff1673ffffffffffffffffffffffffffffffffffffffff1681526020019081526020016000206000018190555081600360008373ffffffffffffffffffffffffffffffffffffffff1673ffffffffffffffffffffffffffffffffffffffff16815260200190815260200160002060010190805190602001906119a0929190611b10565b506000600360008373ffffffffffffffffffffffffffffffffffffffff1673ffffffffffffffffffffffffffffffffffffffff168152602001908152602001600020600301819055506000600360008373ffffffffffffffffffffffffffffffffffffffff1673ffffffffffffffffffffffffffffffffffffffff168152602001908152602001600020600201819055506001600360008373ffffffffffffffffffffffffffffffffffffffff1673ffffffffffffffffffffffffffffffffffffffff16815260200190815260200160002060050160006101000a81548160ff0219169083151502179055508073ffffffffffffffffffffffffffffffffffffffff167f09f714ffe8bd94507f70b3ea0839c16a6a2f2164e1f24fac39eff84539a9876660405180806020018281038252601c8152602001807f416464656420506572736f6e20696e746f207468652073797374656d0000000081525060200191505060405180910390a2505050565b828054600181600116156101000203166002900490600052602060002090601f016020900481019282601f10611b5157805160ff1916838001178555611b7f565b82800160010185558215611b7f579182015b82811115611b7e578251825591602001919060010190611b63565b5b509050611b8c9190611b90565b5090565b611bb291905b80821115611bae576000816000905550600101611b96565b5090565b9056fe4f6e6c7920436f6d6d6973696f6e65722063616e2074616b65207468697320616374696f6e214f6e6c792074686520636f6d6d6973696f6e65722063616e2074616b65207468697320616374696f6e21506f6c6963796d616b657220616c72656164792065786973747320696e207468652073797374656d215468652042656e6566696369617279206973206e6f7420656e726f6c6c656420696e2074686520506f6c6963792e506f6c69637920616c72656164792065786973747320617420746869732061646472657373214f6e6c79207468652062656e65666963696172792063616e20766f746520666f722074686520466565646261636b21506f6c696379206d616b6572206d75737420657869737420696e207468652073797374656d21a264697066735822122078822bd8f044ca0848dd1461599cc118adf9edaa3def4022d15375d81531d9d664736f6c63430006000033",
  "source": "pragma solidity ^0.6.0;\r\n\r\n//Smart contract for Decentralized Feedback System\r\ncontract MyContract{\r\n\r\n\r\n    //to check whether the Person has voted or not\r\n    enum State {NONE,VOTED}\r\n\r\n    //to check whether the Contract is active or not\r\n    enum contractState {ACTIVE,INACTIVE}\r\n\r\n    //initially set to inactive\r\n    contractState state = contractState.INACTIVE;\r\n\r\n    address private commisioner;\r\n\r\n    event votedEvent (\r\n        address indexed _policyAddress\r\n    );\r\n\r\n    event added(string _message, address indexed _address);\r\n\r\n    //defining structure of the Policymaker\r\n    struct Policymaker\r\n    {\r\n\r\n        string name;\r\n        uint id;\r\n        uint constituency;\r\n        bool exists;\r\n    }\r\n\r\n    //defining Structure of the Policy\r\n    struct Policy\r\n    {\r\n        bytes32 details; //stores only the hash of the actual statement\r\n        bytes32 beneficiary; //stores only the hash of the actual beneficiary criteria\r\n        address framer;\r\n        uint creditPoints;\r\n        uint voteCountFor;\r\n        uint votecountAgainst;\r\n        bool exists;\r\n\r\n    }\r\n\r\n    //defining the structure of the feedback\r\n    struct Feedback\r\n    {\r\n        address policy;\r\n        State feedback;\r\n    }\r\n\r\n    //defining the structure of the person\r\n    struct Person\r\n    {\r\n        uint id;\r\n        string name;\r\n        //initializing a dynamic array for the feedbacks\r\n        //stores the feedback everytime the person votes in for a policy with the profile\r\n        uint credits;\r\n        uint numPolcies; //counts the number of policies the person is enrolled in\r\n        Feedback[] feedbacks;\r\n        bool exists;\r\n    }\r\n\r\n    //mapping of the address to the policymaker\r\n    mapping (address => Policymaker) public policymakers;\r\n\r\n    //mapping of the address to the person\r\n    mapping (address => Policy) public policies;\r\n\r\n    //mapping of the address to the policy\r\n    mapping(address => Person) public persons;\r\n\r\n    //setting the state to active\r\n    constructor() public\r\n    {\r\n        commisioner = msg.sender;\r\n        state = contractState.ACTIVE;\r\n\r\n    }\r\n\r\n    //setting up the permissions an passing thee _personAddress as a key\r\n    //initializing the parameters of the function\r\n    //mapping of the address to the Person\r\n    function addPerson(uint _id, string memory _name, address _personAddress) public\r\n    {\r\n        require(msg.sender == commisioner, \"Only Commisioner can take this action!\");\r\n        require(!persons[_personAddress].exists,\"Person already exists!\");\r\n\r\n        persons[_personAddress].id = _id;\r\n        persons[_personAddress].name = _name;\r\n        persons[_personAddress].numPolcies = 0;\r\n        persons[_personAddress].credits = 0;\r\n        persons[_personAddress].exists = true;\r\n\r\n        emit added(\"Added Person into the system\", _personAddress);\r\n\r\n    }\r\n\r\n        //setting up the permissions an passing thee _personAddress as a key\r\n        //initializing the parameters of the function\r\n        //mapping of the address to the Policymaker\r\n\r\n    function addPolicymaker(address _policymakerAddress,string memory _name, uint _id,uint _constituency) public\r\n    {\r\n        require(msg.sender == commisioner, \"Only the commisioner can take this action!\");\r\n        require(!policymakers[_policymakerAddress].exists, \"Policymaker already exists in the system!\");\r\n\r\n        policymakers[_policymakerAddress].name = _name;\r\n        policymakers[_policymakerAddress].id = _id;\r\n        policymakers[_policymakerAddress].constituency = _constituency;\r\n        policymakers[_policymakerAddress].exists = true;\r\n\r\n        emit added(\"Added PolicyMaker to the system\", _policymakerAddress);\r\n    }\r\n\r\n        //setting up the permissions an passing thee _personAddress as a key\r\n        //initializing the parameters of the function\r\n        //mapping of the address to the Policy\r\n\r\n    function addPolicy( address _policyAddress,address _framer, bytes32 _beneficiary, bytes32 _details, uint _credits) public\r\n    {\r\n        require(msg.sender == commisioner, \"Only the commisioner can take this action!\");\r\n        require(policymakers[_framer].exists, \"Policy maker must exist in the system!\");\r\n        require(!policies[_policyAddress].exists, \"Policy already exists at this address!\");\r\n\r\n\r\n        policies[_policyAddress].details = _details;\r\n        policies[_policyAddress].beneficiary = _beneficiary;\r\n        policies[_policyAddress].framer = _framer;\r\n        policies[_policyAddress].creditPoints = _credits;\r\n        policies[_policyAddress].exists = true;\r\n\r\n        emit added(\"Added Policy to the System\", _policyAddress);\r\n    }\r\n\r\n    //enrolls person into a Policy\r\n    function enrollPerson(address _policyAddress,address _personAddress) public {\r\n        require(msg.sender == commisioner, \"Only Commisioner can do this!\");\r\n        require(policies[_policyAddress].exists,\"Policy must exist!\");\r\n        require(persons[_personAddress].exists, \"Person must exist!\");\r\n\r\n        persons[_personAddress].numPolcies++;\r\n        persons[_personAddress].feedbacks.push(Feedback(_policyAddress, State.NONE));\r\n    }\r\n\r\n    function vote(address _policyAddress) public\r\n    {\r\n      //require person has not voted before\r\n      require(persons[msg.sender].exists, \"Only the beneficiary can vote for the Feedback!\");\r\n      require(policies[_policyAddress].exists, \"Policy must exist in the system!\");\r\n\r\n      uint i;\r\n      for(i = 0;i<persons[msg.sender].numPolcies;i++){\r\n\r\n          //check if the person is enrolled in the policy and has not yet voted.\r\n          if(persons[msg.sender].feedbacks[i].policy == _policyAddress && persons[msg.sender].feedbacks[i].feedback == State.NONE)\r\n          {\r\n            persons[msg.sender].feedbacks[i].feedback = State.VOTED;\r\n            persons[msg.sender].credits += policies[_policyAddress].creditPoints;\r\n          }\r\n          else\r\n          revert(\"The Beneficiary is not enrolled in the Policy.\");\r\n      }\r\n\r\n      // trigger voted event\r\n        emit votedEvent(_policyAddress);\r\n    }\r\n\r\n\r\n}\r\n",
  "sourcePath": "C:/Users/iamav/Documents/GitHub/DAPP-FeedBack-System/contracts/Feedback.sol",
  "compiler": {
    "name": "solc",
    "version": "0.6.0+commit.26b70077.Emscripten.clang"
  },
  "schemaVersion": "3.0.20",
  "updatedAt": "2019-12-25T14:28:36.568Z",
  "devdoc": {
    "methods": {}
  },
  "userdoc": {
    "methods": {}
  }
}